{
  "abi": [
    {
      "inputs": [
        {
          "internalType": "contract ISuperToken",
          "name": "_spreaderToken",
          "type": "address"
        }
      ],
      "stateMutability": "nonpayable",
      "type": "constructor"
    },
    {
      "inputs": [
        {
          "internalType": "address",
          "name": "subscriber",
          "type": "address"
        },
        {
          "internalType": "uint256",
          "name": "units_",
          "type": "uint256"
        },
        {
          "internalType": "uint32",
          "name": "indexID",
          "type": "uint32"
        }
      ],
      "name": "addShare",
      "outputs": [],
      "stateMutability": "nonpayable",
      "type": "function"
    },
    {
      "inputs": [
        {
          "internalType": "uint32",
          "name": "indexID",
          "type": "uint32"
        }
      ],
      "name": "createIndex",
      "outputs": [],
      "stateMutability": "nonpayable",
      "type": "function"
    },
    {
      "inputs": [
        {
          "internalType": "address",
          "name": "subscriber",
          "type": "address"
        },
        {
          "internalType": "uint32",
          "name": "indexID",
          "type": "uint32"
        }
      ],
      "name": "deleteShares",
      "outputs": [],
      "stateMutability": "nonpayable",
      "type": "function"
    },
    {
      "inputs": [
        {
          "internalType": "uint32",
          "name": "indexID",
          "type": "uint32"
        },
        {
          "internalType": "uint256",
          "name": "spreaderTokenBalance",
          "type": "uint256"
        }
      ],
      "name": "distribute",
      "outputs": [],
      "stateMutability": "nonpayable",
      "type": "function"
    },
    {
      "inputs": [
        {
          "internalType": "address",
          "name": "subscriber",
          "type": "address"
        },
        {
          "internalType": "uint256",
          "name": "units_",
          "type": "uint256"
        },
        {
          "internalType": "uint32",
          "name": "indexID",
          "type": "uint32"
        }
      ],
      "name": "reduceShare",
      "outputs": [],
      "stateMutability": "nonpayable",
      "type": "function"
    },
    {
      "inputs": [],
      "name": "spreaderToken",
      "outputs": [
        {
          "internalType": "contract ISuperToken",
          "name": "",
          "type": "address"
        }
      ],
      "stateMutability": "view",
      "type": "function"
    }
  ],
  "bytecode": {
    "object": "0x608060405234801561001057600080fd5b50604051610f2c380380610f2c83398101604081905261002f91610054565b600080546001600160a01b0319166001600160a01b0392909216919091179055610084565b60006020828403121561006657600080fd5b81516001600160a01b038116811461007d57600080fd5b9392505050565b610e99806100936000396000f3fe608060405234801561001057600080fd5b50600436106100625760003560e01c8063188d48c6146100675780634c36e7ec1461007c578063844a5f5f1461008f5780639bc2a8ff146100be5780639c7c495a1461007c578063fa97052c146100d1575b600080fd5b61007a610075366004610a4c565b6100e4565b005b61007a61008a366004610a8e565b61011e565b6000546100a2906001600160a01b031681565b6040516001600160a01b03909116815260200160405180910390f35b61007a6100cc366004610acc565b610171565b61007a6100df366004610b01565b61018e565b600080546100fd906001600160a01b03163085856101a8565b50600054909150610118906001600160a01b0316848361024d565b50505050565b60008054610137906001600160a01b0316308487610376565b506001600160801b03169250505061016a828585846101569190610b23565b6000546001600160a01b0316929190610425565b5050505050565b600054610189906001600160a01b0316308385610551565b505050565b6000546101a4906001600160a01b0316826105df565b5050565b60008060006101b687610707565b604051632266eabb60e21b81526001600160a01b038a81166004830152898116602483015263ffffffff8916604483015260648201889052919350908316915063899baaec906084016040805180830381865afa15801561021b573d6000803e3d6000fd5b505050506040513d601f19601f8201168201806040525081019061023f9190610b5b565b925092505094509492505050565b600080600061025b86610888565b91509150816001600160a01b03166339255d5b82836001600160a01b031663b96731c28a8a8a600067ffffffffffffffff81111561029b5761029b610b7e565b6040519080825280601f01601f1916602001820160405280156102c5576020820181803683370190505b506040516024016102d99493929190610be4565b60408051808303601f1901815291815260208201805160e094851b6001600160e01b03909116179052519185901b6001600160e01b031916825261032293925090600401610c21565b6000604051808303816000875af1158015610341573d6000803e3d6000fd5b505050506040513d6000823e601f3d908101601f191682016040526103699190810190610c68565b5060019695505050505050565b600080600080600061038789610707565b604051635b53405160e01b81526001600160a01b038c811660048301528b8116602483015263ffffffff8b16604483015289811660648301529193509083169150635b53405190608401608060405180830381865afa1580156103ee573d6000803e3d6000fd5b505050506040513d601f19601f820116820180604052508101906104129190610d25565b929c919b50995090975095505050505050565b600080600061043387610888565b91509150816001600160a01b03166339255d5b82836001600160a01b031663232d2b588b8b8b8b600067ffffffffffffffff81111561047457610474610b7e565b6040519080825280601f01601f19166020018201604052801561049e576020820181803683370190505b506040516024016104b3959493929190610d70565b60408051808303601f1901815291815260208201805160e094851b6001600160e01b03909116179052519185901b6001600160e01b03191682526104fc93925090600401610c21565b6000604051808303816000875af115801561051b573d6000803e3d6000fd5b505050506040513d6000823e601f3d908101601f191682016040526105439190810190610c68565b506001979650505050505050565b600080600061055f87610888565b91509150816001600160a01b03166339255d5b82836001600160a01b0316632e5e74c68b8b8b8b600067ffffffffffffffff8111156105a0576105a0610b7e565b6040519080825280601f01601f1916602001820160405280156105ca576020820181803683370190505b506040516024016104b3959493929190610db7565b60008060006105ed85610888565b91509150816001600160a01b03166339255d5b82836001600160a01b031663d787840a8989600067ffffffffffffffff81111561062c5761062c610b7e565b6040519080825280601f01601f191660200182016040528015610656576020820181803683370190505b5060405160240161066993929190610df7565b60408051808303601f1901815291815260208201805160e094851b6001600160e01b03909116179052519185901b6001600160e01b03191682526106b293925090600401610c21565b6000604051808303816000875af11580156106d1573d6000803e3d6000fd5b505050506040513d6000823e601f3d908101601f191682016040526106f99190810190610c68565b506001925050505b92915050565b7f65599bf746e17a00ea62e3610586992d88101b78eec3cf380706621fb97ea837547fa832ee1924ea960211af2df07d65d166232018f613ac6708043cd8f8773eddeb546001600160a01b038116610857576001600160a01b0382166107cc57826001600160a01b03166320bc44256040518163ffffffff1660e01b8152600401602060405180830381865afa1580156107a5573d6000803e3d6000fd5b505050506040513d601f19601f820116820180604052508101906107c99190610e30565b91505b604051635b69006f60e11b81527f15609310ae3c30189a1218b7adabaf36c267255e70cf91b6cba384367d9eda3260048201526001600160a01b0383169063b6d200de90602401602060405180830381865afa158015610830573d6000803e3d6000fd5b505050506040513d601f19601f820116820180604052508101906108549190610e30565b90505b6001600160a01b03821661086d5761086d610e4d565b6001600160a01b03811661088357610883610e4d565b915091565b7f65599bf746e17a00ea62e3610586992d88101b78eec3cf380706621fb97ea837547fa832ee1924ea960211af2df07d65d166232018f613ac6708043cd8f8773eddeb546001600160a01b038116610857576001600160a01b03821661094d57826001600160a01b03166320bc44256040518163ffffffff1660e01b8152600401602060405180830381865afa158015610926573d6000803e3d6000fd5b505050506040513d601f19601f8201168201806040525081019061094a9190610e30565b91505b604051635b69006f60e11b81527f8aedc3b5d4bf031e11a7e2940f7251c005698405d58e02e1c247fed3b1b3a67460048201526001600160a01b0383169063b6d200de90602401602060405180830381865afa1580156109b1573d6000803e3d6000fd5b505050506040513d601f19601f820116820180604052508101906109d59190610e30565b9050817f65599bf746e17a00ea62e3610586992d88101b78eec3cf380706621fb97ea83755807fa832ee1924ea960211af2df07d65d166232018f613ac6708043cd8f8773eddeb556001600160a01b03821661086d5761086d610e4d565b803563ffffffff81168114610a4757600080fd5b919050565b60008060408385031215610a5f57600080fd5b610a6883610a33565b946020939093013593505050565b6001600160a01b0381168114610a8b57600080fd5b50565b600080600060608486031215610aa357600080fd5b8335610aae81610a76565b925060208401359150610ac360408501610a33565b90509250925092565b60008060408385031215610adf57600080fd5b8235610aea81610a76565b9150610af860208401610a33565b90509250929050565b600060208284031215610b1357600080fd5b610b1c82610a33565b9392505050565b8082018082111561070157634e487b7160e01b600052601160045260246000fd5b80516001600160801b0381168114610a4757600080fd5b60008060408385031215610b6e57600080fd5b82519150610af860208401610b44565b634e487b7160e01b600052604160045260246000fd5b60005b83811015610baf578181015183820152602001610b97565b50506000910152565b60008151808452610bd0816020860160208601610b94565b601f01601f19169290920160200192915050565b60018060a01b038516815263ffffffff84166020820152826040820152608060608201526000610c176080830184610bb8565b9695505050505050565b6001600160a01b0383168152606060208201819052600090610c4590830184610bb8565b8281036040938401526002815261060f60f31b6020820152919091019392505050565b600060208284031215610c7a57600080fd5b815167ffffffffffffffff80821115610c9257600080fd5b818401915084601f830112610ca657600080fd5b815181811115610cb857610cb8610b7e565b604051601f8201601f19908116603f01168101908382118183101715610ce057610ce0610b7e565b81604052828152876020848701011115610cf957600080fd5b610d0a836020830160208801610b94565b979650505050505050565b80518015158114610a4757600080fd5b60008060008060808587031215610d3b57600080fd5b610d4485610d15565b9350610d5260208601610d15565b9250610d6060408601610b44565b6060959095015193969295505050565b6001600160a01b03868116825263ffffffff86166020830152841660408201526001600160801b038316606082015260a060808201819052600090610d0a90830184610bb8565b6001600160a01b038681168252858116602083015263ffffffff851660408301528316606082015260a060808201819052600090610d0a90830184610bb8565b6001600160a01b038416815263ffffffff83166020820152606060408201819052600090610e2790830184610bb8565b95945050505050565b600060208284031215610e4257600080fd5b8151610b1c81610a76565b634e487b7160e01b600052600160045260246000fdfea2646970667358221220d7f5bd65fba12b69985d6afc2475906b8a0c7b3d4398292f6783c05d7d32495664736f6c63430008110033",
    "linkReferences": {}
  },
  "methodIdentifiers": {
    "addShare(address,uint256,uint32)": "9c7c495a",
    "createIndex(uint32)": "fa97052c",
    "deleteShares(address,uint32)": "9bc2a8ff",
    "distribute(uint32,uint256)": "188d48c6",
    "reduceShare(address,uint256,uint32)": "4c36e7ec",
    "spreaderToken()": "844a5f5f"
  },
  "id": 2
}