{
  "abi": [
    {
      "inputs": [
        {
          "internalType": "address",
          "name": "vrfCon_",
          "type": "address"
        },
        {
          "internalType": "address",
          "name": "_dist",
          "type": "address"
        }
      ],
      "stateMutability": "nonpayable",
      "type": "constructor"
    },
    {
      "anonymous": false,
      "inputs": [
        {
          "indexed": true,
          "internalType": "uint256",
          "name": "spin_",
          "type": "uint256"
        },
        {
          "indexed": true,
          "internalType": "uint8",
          "name": "number_",
          "type": "uint8"
        }
      ],
      "name": "SetNumber",
      "type": "event"
    },
    {
      "anonymous": false,
      "inputs": [
        {
          "indexed": true,
          "internalType": "uint256",
          "name": "spin_",
          "type": "uint256"
        }
      ],
      "name": "SpinStarted",
      "type": "event"
    },
    {
      "anonymous": false,
      "inputs": [
        {
          "indexed": true,
          "internalType": "uint256",
          "name": "spin_",
          "type": "uint256"
        }
      ],
      "name": "WinnersAdded",
      "type": "event"
    },
    {
      "inputs": [],
      "name": "COURNER_PAY",
      "outputs": [
        {
          "internalType": "uint256",
          "name": "",
          "type": "uint256"
        }
      ],
      "stateMutability": "view",
      "type": "function"
    },
    {
      "inputs": [],
      "name": "DOZONE_COLUMN",
      "outputs": [
        {
          "internalType": "uint256",
          "name": "",
          "type": "uint256"
        }
      ],
      "stateMutability": "view",
      "type": "function"
    },
    {
      "inputs": [],
      "name": "SIX_LINE_PAY",
      "outputs": [
        {
          "internalType": "uint256",
          "name": "",
          "type": "uint256"
        }
      ],
      "stateMutability": "view",
      "type": "function"
    },
    {
      "inputs": [],
      "name": "SPLIT_PAY",
      "outputs": [
        {
          "internalType": "uint256",
          "name": "",
          "type": "uint256"
        }
      ],
      "stateMutability": "view",
      "type": "function"
    },
    {
      "inputs": [],
      "name": "STRAIGHT_UP_PAY",
      "outputs": [
        {
          "internalType": "uint256",
          "name": "",
          "type": "uint256"
        }
      ],
      "stateMutability": "view",
      "type": "function"
    },
    {
      "inputs": [],
      "name": "STREET_PAY",
      "outputs": [
        {
          "internalType": "uint256",
          "name": "",
          "type": "uint256"
        }
      ],
      "stateMutability": "view",
      "type": "function"
    },
    {
      "inputs": [],
      "name": "addWinnerstodistibution",
      "outputs": [],
      "stateMutability": "nonpayable",
      "type": "function"
    },
    {
      "inputs": [],
      "name": "getWinningNumber",
      "outputs": [],
      "stateMutability": "nonpayable",
      "type": "function"
    },
    {
      "inputs": [
        {
          "internalType": "uint8",
          "name": "",
          "type": "uint8"
        },
        {
          "internalType": "uint256",
          "name": "",
          "type": "uint256"
        },
        {
          "internalType": "address",
          "name": "",
          "type": "address"
        }
      ],
      "name": "numberAddressAmount",
      "outputs": [
        {
          "internalType": "uint256",
          "name": "",
          "type": "uint256"
        }
      ],
      "stateMutability": "view",
      "type": "function"
    },
    {
      "inputs": [
        {
          "internalType": "uint8",
          "name": "color_",
          "type": "uint8"
        },
        {
          "internalType": "uint256",
          "name": "amount",
          "type": "uint256"
        }
      ],
      "name": "placeColor",
      "outputs": [],
      "stateMutability": "nonpayable",
      "type": "function"
    },
    {
      "inputs": [
        {
          "internalType": "uint8",
          "name": "column_",
          "type": "uint8"
        },
        {
          "internalType": "uint256",
          "name": "amount",
          "type": "uint256"
        }
      ],
      "name": "placeColumn",
      "outputs": [],
      "stateMutability": "nonpayable",
      "type": "function"
    },
    {
      "inputs": [
        {
          "internalType": "uint8[4]",
          "name": "number",
          "type": "uint8[4]"
        },
        {
          "internalType": "uint256",
          "name": "amount",
          "type": "uint256"
        }
      ],
      "name": "placeConer",
      "outputs": [],
      "stateMutability": "nonpayable",
      "type": "function"
    },
    {
      "inputs": [
        {
          "internalType": "uint8",
          "name": "dozone_",
          "type": "uint8"
        },
        {
          "internalType": "uint256",
          "name": "amount",
          "type": "uint256"
        }
      ],
      "name": "placeDozone",
      "outputs": [],
      "stateMutability": "nonpayable",
      "type": "function"
    },
    {
      "inputs": [
        {
          "internalType": "uint8",
          "name": "side_",
          "type": "uint8"
        },
        {
          "internalType": "uint256",
          "name": "amount",
          "type": "uint256"
        }
      ],
      "name": "placeNumberSide",
      "outputs": [],
      "stateMutability": "nonpayable",
      "type": "function"
    },
    {
      "inputs": [
        {
          "internalType": "uint8[6]",
          "name": "number",
          "type": "uint8[6]"
        },
        {
          "internalType": "uint256",
          "name": "amount",
          "type": "uint256"
        }
      ],
      "name": "placeSixLine",
      "outputs": [],
      "stateMutability": "nonpayable",
      "type": "function"
    },
    {
      "inputs": [
        {
          "internalType": "uint8[2]",
          "name": "number",
          "type": "uint8[2]"
        },
        {
          "internalType": "uint256",
          "name": "amount",
          "type": "uint256"
        }
      ],
      "name": "placeSplit",
      "outputs": [],
      "stateMutability": "nonpayable",
      "type": "function"
    },
    {
      "inputs": [
        {
          "internalType": "uint8[]",
          "name": "number",
          "type": "uint8[]"
        },
        {
          "internalType": "uint256[]",
          "name": "amounts",
          "type": "uint256[]"
        }
      ],
      "name": "placeStaightUps",
      "outputs": [],
      "stateMutability": "nonpayable",
      "type": "function"
    },
    {
      "inputs": [
        {
          "internalType": "uint8[3]",
          "name": "number",
          "type": "uint8[3]"
        },
        {
          "internalType": "uint256",
          "name": "amount",
          "type": "uint256"
        }
      ],
      "name": "placeStreet",
      "outputs": [],
      "stateMutability": "nonpayable",
      "type": "function"
    },
    {
      "inputs": [
        {
          "internalType": "uint8",
          "name": "number_",
          "type": "uint8"
        }
      ],
      "name": "setNumber",
      "outputs": [],
      "stateMutability": "nonpayable",
      "type": "function"
    },
    {
      "inputs": [],
      "name": "spinCount",
      "outputs": [
        {
          "internalType": "uint256",
          "name": "",
          "type": "uint256"
        }
      ],
      "stateMutability": "view",
      "type": "function"
    },
    {
      "inputs": [
        {
          "internalType": "uint256",
          "name": "",
          "type": "uint256"
        }
      ],
      "name": "spinInfo",
      "outputs": [
        {
          "internalType": "bool",
          "name": "numberRequested",
          "type": "bool"
        },
        {
          "internalType": "bool",
          "name": "hasBeenDecided",
          "type": "bool"
        },
        {
          "internalType": "bool",
          "name": "winnersAdded",
          "type": "bool"
        },
        {
          "internalType": "uint8",
          "name": "winningNumber",
          "type": "uint8"
        },
        {
          "internalType": "uint256",
          "name": "startTime",
          "type": "uint256"
        }
      ],
      "stateMutability": "view",
      "type": "function"
    },
    {
      "inputs": [],
      "name": "startSpin",
      "outputs": [],
      "stateMutability": "nonpayable",
      "type": "function"
    }
  ],
  "bytecode": {
    "object": "0x60806040523480156200001157600080fd5b5060405162001bca38038062001bca833981016040819052620000349162000087565b60008055600180546001600160a01b039384166001600160a01b03199182161790915560028054929093169116179055620000bf565b80516001600160a01b03811681146200008257600080fd5b919050565b600080604083850312156200009b57600080fd5b620000a6836200006a565b9150620000b6602084016200006a565b90509250929050565b611afb80620000cf6000396000f3fe608060405234801561001057600080fd5b50600436106101425760003560e01c8063985718f6116100b8578063cd6fdd981161007c578063cd6fdd9814610269578063d08e8506146102e5578063d74b87d6146102ed578063d803542514610300578063db52678a14610308578063ddfac7e01461031057600080fd5b8063985718f6146102205780639b2c7159146102335780639d62fb4214610246578063ac6bc85314610259578063bbe3e7cb1461026157600080fd5b806355fbbda21161010a57806355fbbda2146101cf578063617f6aff146101e25780636c9af6be146101ea5780637a58e87e146101fd5780638b0b9ed414610205578063959cf4a71461020d57600080fd5b806318559e19146101475780632dea805b1461015c5780632f2c653314610178578063339e8a531461018b5780634ba5f2c1146101bc575b600080fd5b61015a610155366004611575565b610318565b005b61016560005481565b6040519081526020015b60405180910390f35b61015a610186366004611597565b610419565b6101656101993660046115c1565b600660209081526000938452604080852082529284528284209052825290205481565b61015a6101ca366004611654565b61056c565b61015a6101dd366004611597565b6106eb565b610165600581565b61015a6101f8366004611597565b6107b0565b610165600281565b61015a610960565b61015a61021b36600461176f565b610a75565b61015a61022e36600461182f565b610ba4565b61015a610241366004611597565b610d26565b61015a6102543660046118aa565b610deb565b61015a610f1d565b610165601181565b6102b3610277366004611925565b6003602052600090815260409020805460019091015460ff80831692610100810482169262010000820483169263010000009092049091169085565b60408051951515865293151560208601529115159284019290925260ff9091166060830152608082015260a00161016f565b61015a611125565b61015a6102fb36600461193e565b61136c565b610165602381565b610165600881565b610165600b81565b60008060006103256114e3565b9250925092508280156103355750815b801561033f575080155b61034857600080fd5b6040805160a08101825260018082526020808301828152600084860181815260ff8b8116606088018181524260808a019081528554865260039097528985209851895496519451915161ffff1990971690151561ff00191617610100941515949094029390931763ffff00001916620100009315159390930263ff0000001916929092176301000000949091169390930292909217855591519390920192909255815492519092917f2cd426715d4dcdf4e2ab9180810e3afabc94f550d9dd531b113c55ff13c5192691a350505050565b8160ff166001036104915760015b600c8160ff16101561048c578161043f6002826119cf565b61044991906119ec565b60ff821660009081526006602090815260408083208354845282528083203384529091528120805490919061047f9084906119ec565b9091555050600101610427565b505050565b8160ff1660020361050457600d5b60158160ff16101561048c57816104b76002826119cf565b6104c191906119ec565b60ff82166000908152600660209081526040808320835484528252808320338452909152812080549091906104f79084906119ec565b909155505060010161049f565b60195b60258160ff16101561048c578161051f6002826119cf565b61052991906119ec565b60ff821660009081526006602090815260408083208354845282528083203384529091528120805490919061055f9084906119ec565b9091555050600101610507565b8151602083015161057d9190611a15565b60ff16600314806105a157508151602083015161059a9190611a15565b60ff166001145b806105e95750815160ff161580156105e95750602082015160ff16600114806105d45750816001602002015160ff166002145b806105e95750816001602002015160ff166003145b6105f257600080fd5b60005b60028160ff16101561048c576025838260ff1660028110610618576106186119ff565b602002015160ff16106040518060400160405280600c81526020016b2ba927a723afa72aa6a122a960a11b8152509061066d5760405162461bcd60e51b81526004016106649190611a2e565b60405180910390fd5b508161067a6011826119cf565b61068491906119ec565b60066000858460ff166002811061069d5761069d6119ff565b6020908102919091015160ff1682528181019290925260409081016000908120815482528352818120338252909252812080549091906106de9084906119ec565b90915550506001016105f5565b8160ff166001036107535760015b60138160ff16101561048c576107108260026119cf565b60ff82166000908152600660209081526040808320835484528252808320338452909152812080549091906107469084906119ec565b90915550506001016106f9565b60135b60258160ff16101561048c5761076d8260026119cf565b60ff82166000908152600660209081526040808320835484528252808320338452909152812080549091906107a39084906119ec565b9091555050600101610756565b8160ff166001036108485760015b60258160ff16101561048c578060ff166001146107ef576107e0600382611a7c565b60ff166001146107ef57600080fd5b816107fb6002826119cf565b61080591906119ec565b60ff821660009081526006602090815260408083208354845282528083203384529091528120805490919061083b9084906119ec565b90915550506001016107be565b8160ff166002036108e05760035b60158160ff16101561048c578060ff1660021461088757610878600382611a7c565b60ff1660021461088757600080fd5b816108936002826119cf565b61089d91906119ec565b60ff82166000908152600660209081526040808320835484528252808320338452909152812080549091906108d39084906119ec565b9091555050600101610856565b60035b60258160ff16101561048c576108fa600382611a7c565b60ff161561090757600080fd5b816109136002826119cf565b61091d91906119ec565b60ff82166000908152600660209081526040808320835484528252808320338452909152812080549091906109539084906119ec565b90915550506001016108e3565b6000805480825260036020908152604092839020835160a081018552815460ff8082161515835261010082048116151594830194909452620100008104841615159582019590955263010000009094049091166060840152600101546080830181905290919042906109d490600a906119ec565b10156109df57600080fd5b600160009054906101000a90046001600160a01b03166001600160a01b031663e0c862896040518163ffffffff1660e01b81526004016020604051808303816000875af1158015610a34573d6000803e3d6000fd5b505050506040513d601f19601f82011682018060405250810190610a589190611aac565b50506000908152600360205260409020805460ff19166001179055565b60005b82518160ff16101561048c576025838260ff1681518110610a9b57610a9b6119ff565b602002602001015160ff16106040518060400160405280600c81526020016b2ba927a723afa72aa6a122a960a11b81525090610aea5760405162461bcd60e51b81526004016106649190611a2e565b50818160ff1681518110610b0057610b006119ff565b60200260200101516023838360ff1681518110610b1f57610b1f6119ff565b6020026020010151610b3191906119cf565b610b3b91906119ec565b60066000858460ff1681518110610b5457610b546119ff565b60209081029190910181015160ff168252818101929092526040908101600090812081548252835281812033825290925281208054909190610b979084906119ec565b9091555050600101610a78565b81516040830151610bb59190611a15565b60ff166002148015610bdd575060208201516040830151610bd69190611a15565b60ff166001145b80610c385750815160ff16158015610c385750816002602002015160ff166003148015610c145750816001602002015160ff166002145b80610c385750604082015160ff166002148015610c385750602082015160ff166001145b610c4157600080fd5b60005b60038160ff16101561048c576025838260ff1660038110610c6757610c676119ff565b602002015160ff16106040518060400160405280600c81526020016b2ba927a723afa72aa6a122a960a11b81525090610cb35760405162461bcd60e51b81526004016106649190611a2e565b50610cbf82600b6119cf565b60066000858460ff1660038110610cd857610cd86119ff565b6020908102919091015160ff168252818101929092526040908101600090812081548252835281812033825290925281208054909190610d199084906119ec565b9091555050600101610c44565b8160ff16600103610d8e5760015b60138160ff16101561048c57610d4b8260026119cf565b60ff8216600090815260066020908152604080832083548452825280832033845290915281208054909190610d819084906119ec565b9091555050600101610d34565b60135b60258160ff16101561048c57610da88260026119cf565b60ff8216600090815260066020908152604080832083548452825280832033845290915281208054909190610dde9084906119ec565b9091555050600101610d91565b815160a0830151610dfc9190611a15565b60ff166005148015610e24575060408201516060830151610e1d9190611a15565b60ff166001145b610e2d57600080fd5b60005b60068160ff16101561048c576025838260ff1660068110610e5357610e536119ff565b602002015160ff16106040518060400160405280600c81526020016b2ba927a723afa72aa6a122a960a11b81525090610e9f5760405162461bcd60e51b81526004016106649190611a2e565b5081610eac6005826119cf565b610eb691906119ec565b60066000858460ff1660068110610ecf57610ecf6119ff565b6020908102919091015160ff168252818101929092526040908101600090812081548252835281812033825290925281208054909190610f109084906119ec565b9091555050600101610e30565b6000805490819003611004576040805160a081018252600080825260208083018281529383018281526060840183815242608086019081526001808652600390945294517fa15bc60c955c405d20d9149c709e2460f1c2d9a497496a7f46004d1772c3054c805497519351925161ffff1990981691151561ff00191691909117610100931515939093029290921763ffff00001916620100009115159190910263ff000000191617630100000060ff909616959095029490941790935590517fa15bc60c955c405d20d9149c709e2460f1c2d9a497496a7f46004d1772c3054d55556110ee565b600061100e6114e3565b925050508061101c57600080fd5b6040805160a08101825260008082526020820181905291810182905260608101829052426080820152906003906110548560016119ec565b815260208082019290925260409081016000908120845181549486015193860151606087015161ffff1990961691151561ff00191691909117610100941515949094029390931763ffff00001916620100009315159390930263ff000000191692909217630100000060ff90941693909302929092178155608090920151600192830155805481906110e79084906119ec565b9091555050505b6110f98160016119ec565b6040517ffae21cf46167833de51b807a7dda512a8fe70a854aa0232b05bb86c31d9bb9b290600090a250565b600054600254604051633ea5c14b60e21b815263ffffffff831660048201526001600160a01b039091169063fa97052c90602401600060405180830381600087803b15801561117357600080fd5b505af1158015611187573d6000803e3d6000fd5b50505060008281526004602090815260408083208054825181850281018501909352808352939450909290918301828280156111ec57602002820191906000526020600020905b81546001600160a01b031681526001909101906020018083116111ce575b505050600085815260036020526040812054939450630100000090930460ff16929150505b825181101561132257600083828151811061122e5761122e6119ff565b60209081029190910181015160008781526005835260408082206001600160a01b0384168352909352919091205490915060ff1680156113185760ff8416600090815260066020908152604080832089845282528083206001600160a01b038681168086529190935292819020546002549151634e3e24ad60e11b815260048101949094526fffffffffffffffffffffffffffffffff8116602485015263ffffffff8a16604485015292911690639c7c495a90606401600060405180830381600087803b1580156112fe57600080fd5b505af1158015611312573d6000803e3d6000fd5b50505050505b5050600101611211565b50600083815260036020526040808220805462ff00001916620100001790555184917f172af18e2970ad47e500cba452e87414116c44e5946066ef1fd6931d13d2fc8491a2505050565b8151606083015161137d9190611a15565b60ff1660041480156113a557506020820151604083015161139e9190611a15565b60ff166002145b806113ea5750815160ff161580156113c45750602082015160ff166001145b80156113d75750604082015160ff166002145b80156113ea5750606082015160ff166003145b6113f357600080fd5b60005b60048160ff16101561048c576025838260ff1660048110611419576114196119ff565b602002015160ff16106040518060400160405280600c81526020016b2ba927a723afa72aa6a122a960a11b815250906114655760405162461bcd60e51b81526004016106649190611a2e565b50816114726008826119cf565b61147c91906119ec565b60066000858460ff1660048110611495576114956119ff565b6020908102919091015160ff1682528181019290925260409081016000908120815482528352818120338252909252812080549091906114d69084906119ec565b90915550506001016113f6565b600080548152600360209081526040808320815160a081018352815460ff80821615158084526101008304821615159684018790526201000083048216151595840195909552630100000090910416606082015260019091015460808201819052919391429061155590600a906119ec565b1015915050909192565b803560ff8116811461157057600080fd5b919050565b60006020828403121561158757600080fd5b6115908261155f565b9392505050565b600080604083850312156115aa57600080fd5b6115b38361155f565b946020939093013593505050565b6000806000606084860312156115d657600080fd5b6115df8461155f565b92506020840135915060408401356001600160a01b038116811461160257600080fd5b809150509250925092565b634e487b7160e01b600052604160045260246000fd5b604051601f8201601f1916810167ffffffffffffffff8111828210171561164c5761164c61160d565b604052919050565b6000806060838503121561166757600080fd5b83601f84011261167657600080fd5b6040516040810181811067ffffffffffffffff821117156116995761169961160d565b80604052508060408501868111156116b057600080fd5b855b818110156116d1576116c38161155f565b8352602092830192016116b2565b50919691359550909350505050565b600067ffffffffffffffff8211156116fa576116fa61160d565b5060051b60200190565b600082601f83011261171557600080fd5b8135602061172a611725836116e0565b611623565b82815260059290921b8401810191818101908684111561174957600080fd5b8286015b84811015611764578035835291830191830161174d565b509695505050505050565b6000806040838503121561178257600080fd5b823567ffffffffffffffff8082111561179a57600080fd5b818501915085601f8301126117ae57600080fd5b813560206117be611725836116e0565b82815260059290921b840181019181810190898411156117dd57600080fd5b948201945b83861015611802576117f38661155f565b825294820194908201906117e2565b9650508601359250508082111561181857600080fd5b5061182585828601611704565b9150509250929050565b6000806080838503121561184257600080fd5b83601f84011261185157600080fd5b6040516060810181811067ffffffffffffffff821117156118745761187461160d565b60405280606085018681111561188957600080fd5b855b818110156116d15761189c8161155f565b83526020928301920161188b565b60008060e083850312156118bd57600080fd5b83601f8401126118cc57600080fd5b60405160c0810181811067ffffffffffffffff821117156118ef576118ef61160d565b6040528060c085018681111561190457600080fd5b855b818110156116d1576119178161155f565b835260209283019201611906565b60006020828403121561193757600080fd5b5035919050565b60008060a0838503121561195157600080fd5b83601f84011261196057600080fd5b6040516080810181811067ffffffffffffffff821117156119835761198361160d565b60405280608085018681111561199857600080fd5b855b818110156116d1576119ab8161155f565b83526020928301920161199a565b634e487b7160e01b600052601160045260246000fd5b80820281158282048414176119e6576119e66119b9565b92915050565b808201808211156119e6576119e66119b9565b634e487b7160e01b600052603260045260246000fd5b60ff82811682821603908111156119e6576119e66119b9565b600060208083528351808285015260005b81811015611a5b57858101830151858201604001528201611a3f565b506000604082860101526040601f19601f8301168501019250505092915050565b600060ff831680611a9d57634e487b7160e01b600052601260045260246000fd5b8060ff84160691505092915050565b600060208284031215611abe57600080fd5b505191905056fea2646970667358221220101300bfd51d0f075cf5345f22e84386258f88017eebc930d2ce97e9d42db9af64736f6c63430008110033",
    "linkReferences": {}
  },
  "methodIdentifiers": {
    "COURNER_PAY()": "db52678a",
    "DOZONE_COLUMN()": "7a58e87e",
    "SIX_LINE_PAY()": "617f6aff",
    "SPLIT_PAY()": "bbe3e7cb",
    "STRAIGHT_UP_PAY()": "d8035425",
    "STREET_PAY()": "ddfac7e0",
    "addWinnerstodistibution()": "d08e8506",
    "getWinningNumber()": "8b0b9ed4",
    "numberAddressAmount(uint8,uint256,address)": "339e8a53",
    "placeColor(uint8,uint256)": "55fbbda2",
    "placeColumn(uint8,uint256)": "6c9af6be",
    "placeConer(uint8[4],uint256)": "d74b87d6",
    "placeDozone(uint8,uint256)": "2f2c6533",
    "placeNumberSide(uint8,uint256)": "9b2c7159",
    "placeSixLine(uint8[6],uint256)": "9d62fb42",
    "placeSplit(uint8[2],uint256)": "4ba5f2c1",
    "placeStaightUps(uint8[],uint256[])": "959cf4a7",
    "placeStreet(uint8[3],uint256)": "985718f6",
    "setNumber(uint8)": "18559e19",
    "spinCount()": "2dea805b",
    "spinInfo(uint256)": "cd6fdd98",
    "startSpin()": "ac6bc853"
  },
  "id": 0
}