{
  "abi": [
    {
      "inputs": [
        {
          "internalType": "uint64",
          "name": "subscriptionId",
          "type": "uint64"
        },
        {
          "internalType": "bytes32",
          "name": "keyHash_",
          "type": "bytes32"
        },
        {
          "internalType": "address",
          "name": "vrfAddress",
          "type": "address"
        }
      ],
      "stateMutability": "nonpayable",
      "type": "constructor"
    },
    {
      "inputs": [
        {
          "internalType": "address",
          "name": "have",
          "type": "address"
        },
        {
          "internalType": "address",
          "name": "want",
          "type": "address"
        }
      ],
      "name": "OnlyCoordinatorCanFulfill",
      "type": "error"
    },
    {
      "anonymous": false,
      "inputs": [
        {
          "indexed": true,
          "internalType": "address",
          "name": "from",
          "type": "address"
        },
        {
          "indexed": true,
          "internalType": "address",
          "name": "to",
          "type": "address"
        }
      ],
      "name": "OwnershipTransferRequested",
      "type": "event"
    },
    {
      "anonymous": false,
      "inputs": [
        {
          "indexed": true,
          "internalType": "address",
          "name": "from",
          "type": "address"
        },
        {
          "indexed": true,
          "internalType": "address",
          "name": "to",
          "type": "address"
        }
      ],
      "name": "OwnershipTransferred",
      "type": "event"
    },
    {
      "anonymous": false,
      "inputs": [
        {
          "indexed": false,
          "internalType": "uint256",
          "name": "requestId",
          "type": "uint256"
        },
        {
          "indexed": false,
          "internalType": "uint256[]",
          "name": "randomWords",
          "type": "uint256[]"
        }
      ],
      "name": "RequestFulfilled",
      "type": "event"
    },
    {
      "anonymous": false,
      "inputs": [
        {
          "indexed": false,
          "internalType": "uint256",
          "name": "requestId",
          "type": "uint256"
        },
        {
          "indexed": false,
          "internalType": "uint32",
          "name": "numWords",
          "type": "uint32"
        }
      ],
      "name": "RequestSent",
      "type": "event"
    },
    {
      "inputs": [],
      "name": "acceptOwnership",
      "outputs": [],
      "stateMutability": "nonpayable",
      "type": "function"
    },
    {
      "inputs": [
        {
          "internalType": "address",
          "name": "roulete_",
          "type": "address"
        }
      ],
      "name": "addRoulette",
      "outputs": [],
      "stateMutability": "nonpayable",
      "type": "function"
    },
    {
      "inputs": [
        {
          "internalType": "uint256",
          "name": "_requestId",
          "type": "uint256"
        }
      ],
      "name": "getRequestStatus",
      "outputs": [
        {
          "internalType": "bool",
          "name": "fulfilled",
          "type": "bool"
        },
        {
          "internalType": "uint256[]",
          "name": "randomWords",
          "type": "uint256[]"
        }
      ],
      "stateMutability": "view",
      "type": "function"
    },
    {
      "inputs": [],
      "name": "keyHash",
      "outputs": [
        {
          "internalType": "bytes32",
          "name": "",
          "type": "bytes32"
        }
      ],
      "stateMutability": "view",
      "type": "function"
    },
    {
      "inputs": [],
      "name": "lastRequestId",
      "outputs": [
        {
          "internalType": "uint256",
          "name": "",
          "type": "uint256"
        }
      ],
      "stateMutability": "view",
      "type": "function"
    },
    {
      "inputs": [],
      "name": "owner",
      "outputs": [
        {
          "internalType": "address",
          "name": "",
          "type": "address"
        }
      ],
      "stateMutability": "view",
      "type": "function"
    },
    {
      "inputs": [
        {
          "internalType": "uint256",
          "name": "requestId",
          "type": "uint256"
        },
        {
          "internalType": "uint256[]",
          "name": "randomWords",
          "type": "uint256[]"
        }
      ],
      "name": "rawFulfillRandomWords",
      "outputs": [],
      "stateMutability": "nonpayable",
      "type": "function"
    },
    {
      "inputs": [
        {
          "internalType": "uint256",
          "name": "",
          "type": "uint256"
        }
      ],
      "name": "requestIds",
      "outputs": [
        {
          "internalType": "uint256",
          "name": "",
          "type": "uint256"
        }
      ],
      "stateMutability": "view",
      "type": "function"
    },
    {
      "inputs": [],
      "name": "requestRandomWords",
      "outputs": [
        {
          "internalType": "uint256",
          "name": "requestId",
          "type": "uint256"
        }
      ],
      "stateMutability": "nonpayable",
      "type": "function"
    },
    {
      "inputs": [
        {
          "internalType": "uint256",
          "name": "",
          "type": "uint256"
        }
      ],
      "name": "s_requests",
      "outputs": [
        {
          "internalType": "bool",
          "name": "fulfilled",
          "type": "bool"
        },
        {
          "internalType": "bool",
          "name": "exists",
          "type": "bool"
        }
      ],
      "stateMutability": "view",
      "type": "function"
    },
    {
      "inputs": [
        {
          "internalType": "address",
          "name": "to",
          "type": "address"
        }
      ],
      "name": "transferOwnership",
      "outputs": [],
      "stateMutability": "nonpayable",
      "type": "function"
    }
  ],
  "bytecode": {
    "object": "0x60a0604052600880546001600160501b03191666020003000186a017905534801561002957600080fd5b50604051610d85380380610d85833981016040819052610048916101e1565b6001600160a01b03811660805233806000816100ab5760405162461bcd60e51b815260206004820152601860248201527f43616e6e6f7420736574206f776e657220746f207a65726f000000000000000060448201526064015b60405180910390fd5b600080546001600160a01b0319166001600160a01b03848116919091179091558116156100db576100db81610138565b5050600380546001600160a01b031916738103b0a8a00be2ddc778e6e7eaa21791cd3646251790555050600480546001600160401b03909316600160a01b02600160a01b600160e01b03199093169290921790915560075561023c565b336001600160a01b038216036101905760405162461bcd60e51b815260206004820152601760248201527f43616e6e6f74207472616e7366657220746f2073656c6600000000000000000060448201526064016100a2565b600180546001600160a01b0319166001600160a01b0383811691821790925560008054604051929316917fed8889f560326eb138920d842192f0eb3dd22b4f139c87a2c57538e05bae12789190a350565b6000806000606084860312156101f657600080fd5b83516001600160401b038116811461020d57600080fd5b6020850151604086015191945092506001600160a01b038116811461023157600080fd5b809150509250925092565b608051610b2761025e600039600081816101d8015261021a0152610b276000f3fe608060405234801561001057600080fd5b50600436106100a95760003560e01c80638da5cb5b116100715780638da5cb5b1461012a578063a168fa8914610145578063d8a4676f14610188578063e0c86289146101a9578063f2fde38b146101b1578063fc2a88c3146101c457600080fd5b80631fe543e3146100ae5780634a95795d146100c357806361728f39146100f357806379ba50971461010f5780638796ba8c14610117575b600080fd5b6100c16100bc3660046108ef565b6101cd565b005b6100c16100d13660046109b9565b600480546001600160a01b0319166001600160a01b0392909216919091179055565b6100fc60075481565b6040519081526020015b60405180910390f35b6100c161025a565b6100fc6101253660046109e9565b610304565b6000546040516001600160a01b039091168152602001610106565b6101716101533660046109e9565b60026020526000908152604090205460ff8082169161010090041682565b604080519215158352901515602083015201610106565b61019b6101963660046109e9565b610325565b604051610106929190610a3d565b6100fc610419565b6100c16101bf3660046109b9565b6105e3565b6100fc60065481565b336001600160a01b037f0000000000000000000000000000000000000000000000000000000000000000161461024c5760405163073e64fd60e21b81523360048201526001600160a01b037f00000000000000000000000000000000000000000000000000000000000000001660248201526044015b60405180910390fd5b61025682826105f7565b5050565b6001546001600160a01b031633146102ad5760405162461bcd60e51b815260206004820152601660248201527526bab9ba10313290383937b837b9b2b21037bbb732b960511b6044820152606401610243565b60008054336001600160a01b0319808316821784556001805490911690556040516001600160a01b0390921692909183917f8be0079c531659141344cd1fd0a4f28419497f9722a3daafe3b4186f6b6457e091a350565b6005818154811061031457600080fd5b600091825260209091200154905081565b600081815260026020526040812054606090610100900460ff1661037f5760405162461bcd60e51b81526020600482015260116024820152701c995c5d595cdd081b9bdd08199bdd5b99607a1b6044820152606401610243565b60008381526002602090815260408083208151606081018352815460ff80821615158352610100909104161515818501526001820180548451818702810187018652818152929593948601938301828280156103fa57602002820191906000526020600020905b8154815260200190600101908083116103e6575b5050505050815250509050806000015181604001519250925050915091565b600061042361077b565b600354600754600480546008546040516305d3b1d360e41b815292830193909352600160a01b900467ffffffffffffffff166024820152640100000000820461ffff16604482015263ffffffff8083166064830152660100000000000090920490911660848201526001600160a01b0390911690635d3b1d309060a4016020604051808303816000875af11580156104bf573d6000803e3d6000fd5b505050506040513d601f19601f820116820180604052508101906104e39190610a60565b6040805160608101825260008082526001602080840182815285518481528083018752858701908152878552600283529590932084518154945161ffff1990951690151561ff001916176101009415159490940293909317835593518051959650929491936105589391850192910190610879565b5050600580546001810182556000919091527f036b6384b5eca791c62761152d0c79bb0604c104a5fb6f4eb0703f3154bb3db00182905550600681905560085460408051838152660100000000000090920463ffffffff1660208301527fcc58b13ad3eab50626c6a6300b1d139cd6ebb1688a7cced9461c2f7e762665ee910160405180910390a190565b6105eb61077b565b6105f4816107d0565b50565b600082815260026020526040902054610100900460ff1661064e5760405162461bcd60e51b81526020600482015260116024820152701c995c5d595cdd081b9bdd08199bdd5b99607a1b6044820152606401610243565b6000828152600260209081526040909120805460ff191660019081178255835161067f939290910191840190610879565b5060008160018151811061069557610695610a79565b6020026020010151826000815181106106b0576106b0610a79565b60200260200101516106c29190610a8f565b905060006106d1602583610ab6565b600480546040516318559e1960e01b81529293506001600160a01b0316916318559e199161070a9185910160ff91909116815260200190565b600060405180830381600087803b15801561072457600080fd5b505af1158015610738573d6000803e3d6000fd5b505050507ffe2e2d779dba245964d4e3ef9b994be63856fd568bf7d3ca9e224755cb1bd54d848460405161076d929190610ad8565b60405180910390a150505050565b6000546001600160a01b031633146107ce5760405162461bcd60e51b815260206004820152601660248201527527b7363c9031b0b63630b1363290313c9037bbb732b960511b6044820152606401610243565b565b336001600160a01b038216036108285760405162461bcd60e51b815260206004820152601760248201527f43616e6e6f74207472616e7366657220746f2073656c660000000000000000006044820152606401610243565b600180546001600160a01b0319166001600160a01b0383811691821790925560008054604051929316917fed8889f560326eb138920d842192f0eb3dd22b4f139c87a2c57538e05bae12789190a350565b8280548282559060005260206000209081019282156108b4579160200282015b828111156108b4578251825591602001919060010190610899565b506108c09291506108c4565b5090565b5b808211156108c057600081556001016108c5565b634e487b7160e01b600052604160045260246000fd5b6000806040838503121561090257600080fd5b8235915060208084013567ffffffffffffffff8082111561092257600080fd5b818601915086601f83011261093657600080fd5b813581811115610948576109486108d9565b8060051b604051601f19603f8301168101818110858211171561096d5761096d6108d9565b60405291825284820192508381018501918983111561098b57600080fd5b938501935b828510156109a957843584529385019392850192610990565b8096505050505050509250929050565b6000602082840312156109cb57600080fd5b81356001600160a01b03811681146109e257600080fd5b9392505050565b6000602082840312156109fb57600080fd5b5035919050565b600081518084526020808501945080840160005b83811015610a3257815187529582019590820190600101610a16565b509495945050505050565b8215158152604060208201526000610a586040830184610a02565b949350505050565b600060208284031215610a7257600080fd5b5051919050565b634e487b7160e01b600052603260045260246000fd5b80820180821115610ab057634e487b7160e01b600052601160045260246000fd5b92915050565b600082610ad357634e487b7160e01b600052601260045260246000fd5b500690565b828152604060208201526000610a586040830184610a0256fea26469706673582212201f98e23fbd3f10276c331526992b8df92bb0772d001c6f59a0f20288194cdcc864736f6c63430008110033",
    "linkReferences": {}
  },
  "methodIdentifiers": {
    "acceptOwnership()": "79ba5097",
    "addRoulette(address)": "4a95795d",
    "getRequestStatus(uint256)": "d8a4676f",
    "keyHash()": "61728f39",
    "lastRequestId()": "fc2a88c3",
    "owner()": "8da5cb5b",
    "rawFulfillRandomWords(uint256,uint256[])": "1fe543e3",
    "requestIds(uint256)": "8796ba8c",
    "requestRandomWords()": "e0c86289",
    "s_requests(uint256)": "a168fa89",
    "transferOwnership(address)": "f2fde38b"
  },
  "id": 1
}